:100000000C942A000C9447000C9447000C94470071
:100010000C945D050C9490050C9447000C944700DB
:100020000C9447000C9447000C94F7040C942A0598
:100030000C9447000C9447000C9447000C94470024
:100040000C9447000C9447000C9447000C94470014
:100050000C94470011241FBECFE5D8E0DEBFCDBF12
:1000600010E0A0E6B0E0EAE7FFE202C005900D92E2
:10007000A636B107D9F710E0A6E6B0E001C01D92A0
:10008000A538B107E1F70E9479170C94BB170C94BF
:100090000000DF93CF93CDB7DEB7A3E5B0E0E3E593
:1000A000F0E080818F7B8C93A3E5B0E0E3E5F0E0A6
:1000B000808188608C93A3E5B0E0E3E5F0E0808187
:1000C0008F778C93A3E5B0E0E3E5F0E080818F7D4E
:1000D0008C93A3E5B0E0E3E5F0E080818F7E8C9324
:1000E000A3E5B0E0E3E5F0E080818B7F8C93A3E5AE
:1000F000B0E0E3E5F0E0808182608C93A3E5B0E0BE
:10010000E3E5F0E080818E7F8C93CF91DF910895BD
:10011000DF93CF93CDB7DEB7A5E4B0E0E5E4F0E040
:1001200080818F7B8C93A5E4B0E0E5E4F0E08081F2
:1001300088608C93A5E4B0E0E5E4F0E080818F77FF
:100140008C93A5E4B0E0E5E4F0E080818F7D8C93B2
:10015000A5E4B0E0E5E4F0E080818F7E8C93A5E437
:10016000B0E0E5E4F0E080818B7F8C93A5E4B0E023
:10017000E5E4F0E0808182608C93A5E4B0E0E5E402
:10018000F0E080818E7F8C93CF91DF910895DF9393
:10019000CF9300D000D0CDB7DEB78A8381E08983CA
:1001A0008A81282F30E03C832B838B819C818C308B
:1001B000910509F46BC02B813C812D3031058CF405
:1001C0008B819C818A309105A9F12B813C812B3058
:1001D00031050CF045C08B819C8189309105A1F0DF
:1001E000ADC02B813C812E30310509F47BC08B8161
:1001F0009C818E3091050CF45FC02B813C812F30A7
:10020000310509F485C09AC0A3E5B0E0E3E5F0E06C
:1002100080818B7F8C93A3E5B0E0E3E5F0E0808103
:100220008D7F8C93A3E5B0E0E3E5F0E08081816011
:100230008C9385C0A3E5B0E0E3E5F0E080818B7F9F
:100240008C93A3E5B0E0E3E5F0E0808182608C93DD
:10025000A3E5B0E0E3E5F0E080818E7F8C936FC092
:10026000A3E5B0E0E3E5F0E080818B7F8C93A3E52C
:10027000B0E0E3E5F0E0808182608C93A3E5B0E03C
:10028000E3E5F0E0808181608C9359C0A3E5B0E0A4
:10029000E3E5F0E0808184608C93A3E5B0E0E3E5E2
:1002A000F0E080818D7F8C93A3E5B0E0E3E5F0E0A2
:1002B00080818E7F8C9343C0A3E5B0E0E3E5F0E05E
:1002C000808184608C93A3E5B0E0E3E5F0E0808179
:1002D0008D7F8C93A3E5B0E0E3E5F0E08081816061
:1002E0008C932DC0A3E5B0E0E3E5F0E0808184606D
:1002F0008C93A3E5B0E0E3E5F0E0808182608C932D
:10030000A3E5B0E0E3E5F0E080818E7F8C9317C039
:10031000A3E5B0E0E3E5F0E0808184608C93A3E5A1
:10032000B0E0E3E5F0E0808182608C93A3E5B0E08B
:10033000E3E5F0E0808181608C9301C019828981BE
:100340000F900F900F900F90CF91DF910895DF9352
:10035000CF9300D000D0CDB7DEB78A8381E0898308
:100360008A81282F30E03C832B838B819C818C30C9
:10037000910509F46BC02B813C812D3031058CF443
:100380008B819C818A309105A9F12B813C812B3096
:1003900031050CF045C08B819C8189309105A1F01D
:1003A000ADC02B813C812E30310509F47BC08B819F
:1003B0009C818E3091050CF45FC02B813C812F30E5
:1003C000310509F485C09AC0A5E4B0E0E5E4F0E0A9
:1003D00080818B7F8C93A5E4B0E0E5E4F0E0808140
:1003E0008D7F8C93A5E4B0E0E5E4F0E0808181604E
:1003F0008C9385C0A5E4B0E0E5E4F0E080818B7FDC
:100400008C93A5E4B0E0E5E4F0E0808182608C9319
:10041000A5E4B0E0E5E4F0E080818E7F8C936FC0CE
:10042000A5E4B0E0E5E4F0E080818B7F8C93A5E467
:10043000B0E0E5E4F0E0808182608C93A5E4B0E078
:10044000E5E4F0E0808181608C9359C0A5E4B0E0E0
:10045000E5E4F0E0808184608C93A5E4B0E0E5E41D
:10046000F0E080818D7F8C93A5E4B0E0E5E4F0E0DE
:1004700080818E7F8C9343C0A5E4B0E0E5E4F0E09A
:10048000808184608C93A5E4B0E0E5E4F0E08081B5
:100490008D7F8C93A5E4B0E0E5E4F0E0808181609D
:1004A0008C932DC0A5E4B0E0E5E4F0E080818460A9
:1004B0008C93A5E4B0E0E5E4F0E0808182608C9369
:1004C000A5E4B0E0E5E4F0E080818E7F8C9317C076
:1004D000A5E4B0E0E5E4F0E0808184608C93A5E4DD
:1004E000B0E0E5E4F0E0808182608C93A5E4B0E0C8
:1004F000E5E4F0E0808181608C9301C019828981FC
:100500000F900F900F900F90CF91DF910895DF9390
:10051000CF93CDB7DEB7A3E5B0E0E3E5F0E08081AF
:100520008B7F8C93A3E5B0E0E3E5F0E080818D7FE5
:100530008C93A3E5B0E0E3E5F0E080818E7F8C93BF
:10054000CF91DF910895DF93CF93CDB7DEB7A5E4C8
:10055000B0E0E5E4F0E080818B7F8C93A5E4B0E02F
:10056000E5E4F0E080818D7F8C93A5E4B0E0E5E4E4
:10057000F0E080818E7F8C93CF91DF910895DF939F
:10058000CF9300D000D0CDB7DEB78A8381E08983D6
:100590008A81282F30E03C832B838B819C81893199
:1005A0009105F1F02B813C812A31310534F48B81A6
:1005B0009C818831910561F02BC02B813C812F31CA
:1005C0003105B1F08B819C8180329105C9F020C04A
:1005D000A8E5B0E0E8E5F0E0808181608C9319C087
:1005E000A8E5B0E0E8E5F0E0808182608C9311C07E
:1005F000A8E5B0E0E8E5F0E0808180648C9309C074
:10060000A8E5B0E0E8E5F0E0808180688C9301C067
:10061000198289810F900F900F900F90CF91DF91E9
:100620000895DF93CF9300D000D000D0CDB7DEB7D0
:100630008A837C836B8381E089838A81282F30E0E1
:100640003E832D838D819E8189319105F1F02D812D
:100650003E812A31310534F48D819E8188319105A6
:1006600061F032C02D813E812F313105B9F08D818D
:100670009E8180329105F1F027C0E8E5F0E08081AD
:100680008170EB81FC81808320C0E8E5F0E080810F
:1006900086958170EB81FC81808317C0E8E5F0E0EE
:1006A000808182958695869583708170EB81FC812F
:1006B00080830BC0E8E5F0E08081881F8827881FD1
:1006C000EB81FC81808301C01982898126960FB657
:1006D000F894DEBF0FBECDBFCF91DF910895DF93B9
:1006E000CF9300D000D0CDB7DEB78A8381E0898375
:1006F0008A81282F30E03C832B838B819C81893138
:10070000910529F12B813C812A31310534F48B810B
:100710009C818831910561F047C02B813C812F314C
:10072000310521F18B819C818032910571F13CC0B2
:10073000A8E5B0E0E8E5F0E0808181608C93A9E570
:10074000B0E0E9E5F0E0808181608C932EC0A8E5FF
:10075000B0E0E8E5F0E0808182608C93A9E5B0E04C
:10076000E9E5F0E0808182608C931FC0A8E5B0E0ED
:10077000E8E5F0E0808180648C93A9E5B0E0E9E5EC
:10078000F0E0808180648C9310C0A8E5B0E0E8E5DB
:10079000F0E0808180688C93A9E5B0E0E9E5F0E0C5
:1007A000808180688C9301C0198289810F900F909D
:1007B0000F900F90CF91DF910895DF93CF9300D0EA
:1007C00000D0CDB7DEB78A8381E089838A81282F64
:1007D00030E03C832B838B819C8189319105F1F042
:1007E0002B813C812A31310534F48B819C81883105
:1007F000910561F02BC02B813C812F313105B1F087
:100800008B819C8180329105C9F020C0A9E5B0E0C0
:10081000E9E5F0E080818E7F8C9319C0A9E5B0E016
:10082000E9E5F0E080818D7F8C9311C0A9E5B0E00F
:10083000E9E5F0E080818F7B8C9309C0A9E5B0E009
:10084000E9E5F0E080818F778C9301C0198289817E
:100850000F900F900F900F90CF91DF910895DF933D
:10086000CF9300D00F92CDB7DEB78B8381E08A8320
:100870008B8180958983E2E5F0E0898180838A819C
:100880000F900F900F90CF91DF910895DF93CF934A
:1008900000D00F92CDB7DEB78B8381E08A838B8146
:1008A00080958983E4E4F0E0898180838A810F90D8
:1008B0000F900F90CF91DF910895DF93CF9300D0E9
:1008C000CDB7DEB78A8381E08983ECE5F0E08A81E9
:1008D000808389810F900F90CF91DF910895DF93EE
:1008E000CF9300D0CDB7DEB78A8381E08983E3E47C
:1008F000F0E08A81808389810F900F90CF91DF9102
:100900000895DF93CF9300D000D000D0CDB7DEB7ED
:100910008A837C836B8381E089838B819C810097B0
:1009200001F18A81282F30E03E832D838D819E81C5
:100930008831910531F02D813E812931310541F019
:100940000EC08B819C8190936900809368000AC0DF
:100950008B819C81909367008093660003C019820D
:1009600001C01982898126960FB6F894DEBF0FBEAA
:10097000CDBFCF91DF910895DF93CF9300D000D00A
:1009800000D0CDB7DEB78A837C836B8381E0898317
:100990008B819C81009701F18A81282F30E03E8372
:1009A0002D838D819E818F31910531F02D813E8186
:1009B0002032310541F00EC08B819C8190936D00F7
:1009C00080936C000AC08B819C8190936B00809314
:1009D0006A0003C0198201C01982898126960FB668
:1009E000F894DEBF0FBECDBFCF91DF9108951F9267
:1009F0000F920FB60F9211242F933F934F935F9353
:100A00006F937F938F939F93AF93BF93EF93FF93D6
:100A1000DF93CF93CDB7DEB78091660090916700EA
:100A2000009729F0E0916600F09167000995CF9159
:100A3000DF91FF91EF91BF91AF919F918F917F9146
:100A40006F915F914F913F912F910F900FBE0F903B
:100A50001F9018951F920F920FB60F9211242F938B
:100A60003F934F935F936F937F938F939F93AF9336
:100A7000BF93EF93FF93DF93CF93CDB7DEB7809112
:100A8000680090916900009729F0E0916800F0916A
:100A900069000995CF91DF91FF91EF91BF91AF91DF
:100AA0009F918F917F916F915F914F913F912F9186
:100AB0000F900FBE0F901F9018951F920F920FB6B8
:100AC0000F9211242F933F934F935F936F937F93D4
:100AD0008F939F93AF93BF93EF93FF93DF93CF9346
:100AE000CDB7DEB780916A0090916B00009729F036
:100AF000E0916A00F0916B000995CF91DF91FF9131
:100B0000EF91BF91AF919F918F917F916F915F9185
:100B10004F913F912F910F900FBE0F901F901895FE
:100B20001F920F920FB60F9211242F933F934F9362
:100B30005F936F937F938F939F93AF93BF93EF9345
:100B4000FF93DF93CF93CDB7DEB780916C00909188
:100B50006D00009729F0E0916C00F0916D0009950F
:100B6000CF91DF91FF91EF91BF91AF919F918F91C5
:100B70007F916F915F914F913F912F910F900FBE99
:100B80000F901F9018950F931F93DF93CF93CDB7BE
:100B9000DEB7C954D0400FB6F894DEBF0FBECDBF4C
:100BA0006B877C878D879E878AE18983809161002E
:100BB0008A3109F0C4C11A821B821C821D821E82E6
:100BC0001F821886198688E10E94DD0389E10E9450
:100BD000DD038AE00E94C70089E10E94BF028AEF1C
:100BE0000E945D048FEF0E942F043AC19E01265F90
:100BF0003F4F89E1B9010E9411038A85813009F0D4
:100C00002FC189E10E94BF020A810F8F1B8118A3A7
:100C10002C8129A33D813AA34E814BA35F815CA324
:100C200068856DA379857EA381E08FA318A619A698
:100C30001AA61BA61CA61DA61EA69F8D0FA1900F6F
:100C40009FA711E01FAB2FA53F8D231708F01FAA08
:100C500048A158A5450F48AB61E068AF78A988A1C5
:100C6000781708F018AE9FA908A9900F99AF11E066
:100C70001AAF29AD38A9231708F01AAE48AD5AADFE
:100C8000452B48AF69AD68AB79A189A5780F79ABE1
:100C900091E09BAF09A919A1011708F01BAE28AD7F
:100CA00039A9230F2CAF41E04DAF5CAD69A95617B0
:100CB00008F01DAE7BAD8DAD782B7BAF9CAD99ABB5
:100CC0000AA11AA5010F0AAB21E02EAF3AA94AA149
:100CD000341708F01EAE5BAD6AA9560F5FAF71E026
:100CE00021967FAF21978FAD9AA9891718F0219689
:100CF0001FAE21970EAD21961FAD2197012B0EAF90
:100D00002FAD2AAB3BA14BA5340F3BAB51E0229654
:100D10005FAF22976BA97BA1671718F022961FAED1
:100D200022978EAD9BA9890F23968FAF239701E061
:100D300024960FAF249723961FAD23972BA9121744
:100D400018F024961FAE249722963FAD2297249642
:100D50004FAD2497342B22963FAF229723965FAD59
:100D600023975BAB6CA17CA5670F6CAB81E02596EC
:100D70008FAF25979CA90CA1901718F025961FAE50
:100D8000259722961FAD22972CA9120F26961FAFEA
:100D9000269731E027963FAF279726964FAD2697A7
:100DA0005CA9451718F027961FAE279725966FADBB
:100DB000259727967FAD2797672B25966FAF2597A9
:100DC00026968FAD26978CAB9DA10DA5900F9DAB60
:100DD00011E028961FAF28972DA93DA1231718F0E1
:100DE00028961FAE289725964FAD25975DA9450FEC
:100DF00029964FAF299761E02A966FAF2A972996D7
:100E00007FAD29978DA9781718F02A961FAE2A97DB
:100E100028969FAD28972A960FAD2A97902B289653
:100E20009FAF289729961FAD29971DAB2EA13EA5F0
:100E3000230F2EAB28968FAD28974EA9840F8EAB2B
:100E40002FA538A949A95AA96BA97CA98DA99EA942
:100E50002A833B834C835D836E837F838887998756
:100E60008B859C85AD85BE85880F991FAA1FBB1FEA
:100E7000880F991FAA1FBB1F8C019D0140E050E005
:100E800060E070E00F8B188F298F3A8F4B8F5C8F4B
:100E90006D8F7E8F1A811F872B81288B3C81398B28
:100EA0004D814A8B5E815B8B6F816C8B78857D8BEE
:100EB00089858E8B9E890E8D091708F442C01E8984
:100EC0002E8D121709F092CE3D894D8D4317C8F132
:100ED0005D896D8D561709F089CE7C898C8D8717B9
:100EE00080F19C890C8D901709F080CE1B892B8D89
:100EF000211738F13B894B8D341709F077CE5A8989
:100F00006A8D6517F0F07A898A8D781709F06ECEB0
:100F10009989098D0917A8F01989298D121709F0E7
:100F200065CE3889488D431760F05889688D56170B
:100F300009F05CCE7F858F89871718F057CE8BE13B
:100F400089838981C75BDF4F0FB6F894DEBF0FBE80
:100F5000CDBFCF91DF911F910F910895DF93CF9374
:100F6000CDB7DEB72A970FB6F894DEBF0FBECDBF60
:100F70006F83788789879A878AE189838091610066
:100F80008A31E9F51A821B821C821D8288E10E9447
:100F9000DD0389E10E94DD038AE00E94C70089E148
:100FA0000E94BF028AEF0E945D048FEF0E942F040F
:100FB00018C09E012A5F3F4F89E1B9010E941103C9
:100FC0008E81813071F489E10E94BF028A819B8108
:100FD000AC81BD810196A11DB11D8A839B83AC8329
:100FE000BD832A813B814C815D818F819885A98554
:100FF000BA8582179307A407B507D8F602C08BE11C
:10100000898389812A960FB6F894DEBF0FBECDBFC3
:10101000CF91DF910895DF93CF9300D000D00F924E
:10102000CDB7DEB76A837B838C839D838AE1898316
:10103000809161008A3109F03FC0809160008E315B
:10104000D9F18A819B81AC81BD81880F991FAA1F2C
:10105000BB1F880F991FAA1FBB1F9C01AD0160E039
:1010600070E080E090E020936E0030936F0040933A
:1010700070005093710060937200709373008093BE
:101080007400909375008AEF0E945D048FEF0E94B8
:101090002F048BE18093610089E10E946F0320E7B8
:1010A00038E089E1B9010E9481048AE00E94C7000A
:1010B0008EE18093600002C08BE1898389810F906B
:1010C0000F900F900F900F90CF91DF910895DF93C5
:1010D000CF93CDB7DEB780916000CF91DF910895B7
:1010E000DF93CF93CDB7DEB7AB970FB6F894DEBFE3
:1010F0000FBECDBF809161008B3109F017C12091E7
:101100006E0030916F0040917000509171006091BD
:101110007200709173008091740090917500E22FBD
:10112000E32BE42BE52BE62BE72BE82BE92BEE2337
:1011300009F4FCC080916E00898390916F009A83BE
:10114000809170008B83909171009C8380917200DC
:101150008D83909173009E83809174008F83909112
:10116000750098878FEF89879FEF9A878FEF8B871E
:101170009FEF9C878FEF8D879FEF9E878FEF8F87E5
:101180009FEF988B89819985890F898B81E0898F61
:1011900099898981981708F0198E9A818A85980F04
:1011A0009A8B91E09A8F8A899A81891708F01A8E12
:1011B000898D9A89890F8B8F81E08C8F9B8D8A898D
:1011C000981708F01C8E9A8D8C8D982B9A8F9B8D7A
:1011D0009A8B8B819B85890F8B8B81E08D8F9B896F
:1011E0008B81981708F01D8E9A8D8B89980F9E8F92
:1011F00091E09F8F8E8D9B89891708F01F8E8D8DB2
:101200009F8D892B8D8F8E8D8B8B9C818C85980FDC
:101210009C8B91E098A38C899C81891708F018A277
:101220008D8D9C89890F89A381E08AA399A18C89DE
:10123000981708F01AA298A18AA1982B98A399A1AF
:101240009C8B8D819D85890F8D8B81E08BA39D89E2
:101250008D81981708F01BA298A18D89980F9CA3E7
:1012600091E09DA38CA19D89891708F01DA28BA1F7
:101270009DA1892B8BA38CA18D8B9E818E85980F30
:101280009E8B91E09EA38E899E81891708F01EA2F5
:101290008BA19E89890F8FA381E088A79FA18E894A
:1012A000981708F018A69EA188A5982B9EA39FA129
:1012B0009E8B8F819F85890F8F8B81E089A79F8966
:1012C0008F81981708F019A69EA18F89980F9AA769
:1012D00091E09BA78AA59F89891708F01BA689A57D
:1012E0009BA5892B89A78AA58F8B98858889980FBC
:1012F000988F89A5988D890F888F29893A894B897C
:101300005C896D897E898F89988D20936E003093DA
:101310006F0040937000509371006093720070935F
:101320007300809374009093750006C08AE18093E7
:1013300061008DE180936000AB960FB6F894DEBF3C
:101340000FBECDBFCF91DF9108950F931F93DF9311
:10135000CF93CDB7DEB7C954D0400FB6F894DEBFF7
:101360000FBECDBF6B877C878D879E8781E2898387
:1013700080916300813209F0C4C11A821B821C82F1
:101380001D821E821F82188619868FE10E94DD034E
:1013900080E20E94DD038AE00E94A70180E20E94B1
:1013A000BF028AEF0E946F0480E00E9446043AC1A7
:1013B0009E01265F3F4F80E2B9010E9411038A859A
:1013C000813009F02FC180E20E94BF020A810F8F95
:1013D0001B8118A32C8129A33D813AA34E814BA3E5
:1013E0005F815CA368856DA379857EA381E08FA36F
:1013F00018A619A61AA61BA61CA61DA61EA69F8D7A
:101400000FA1900F9FA711E01FAB2FA53F8D2317B2
:1014100008F01FAA48A158A5450F48AB61E068AF86
:1014200078A988A1781708F018AE9FA908A9900F8D
:1014300099AF11E01AAF29AD38A9231708F01AAEF9
:1014400048AD5AAD452B48AF69AD68AB79A189A5C8
:10145000780F79AB91E09BAF09A919A1011708F0AA
:101460001BAE28AD39A9230F2CAF41E04DAF5CADC9
:1014700069A9561708F01DAE7BAD8DAD782B7BAFFB
:101480009CAD99AB0AA11AA5010F0AAB21E02EAFC2
:101490003AA94AA1341708F01EAE5BAD6AA9560FEF
:1014A0005FAF71E021967FAF21978FAD9AA9891721
:1014B00018F021961FAE21970EAD21961FAD2197F2
:1014C000012B0EAF2FAD2AAB3BA14BA5340F3BAB8D
:1014D00051E022965FAF22976BA97BA1671718F0A6
:1014E00022961FAE22978EAD9BA9890F23968FAFB0
:1014F000239701E024960FAF249723961FAD2397DF
:101500002BA9121718F024961FAE249722963FADF0
:10151000229724964FAD2497342B22963FAF2297E3
:1015200023965FAD23975BAB6CA17CA5670F6CAB7B
:1015300081E025968FAF25979CA90CA1901718F0F4
:1015400025961FAE259722961FAD22972CA9120F24
:1015500026961FAF269731E027963FAF279726960E
:101560004FAD26975CA9451718F027961FAE279711
:1015700025966FAD259727967FAD2797672B2596E4
:101580006FAF259726968FAD26978CAB9DA10DA5A5
:10159000900F9DAB11E028961FAF28972DA93DA174
:1015A000231718F028961FAE289725964FAD25973C
:1015B0005DA9450F29964FAF299761E02A966FAF35
:1015C0002A9729967FAD29978DA9781718F02A9622
:1015D0001FAE2A9728969FAD28972A960FAD2A9777
:1015E000902B28969FAF289729961FAD29971DAB62
:1015F0002EA13EA5230F2EAB28968FAD28974EA97E
:10160000840F8EAB2FA538A949A95AA96BA97CA92B
:101610008DA99EA92A833B834C835D836E837F8340
:10162000888799878B859C85AD85BE85880F991F96
:10163000AA1FBB1F880F991FAA1FBB1F8C019D01EA
:1016400040E050E060E070E00F8B188F298F3A8FF8
:101650004B8F5C8F6D8F7E8F1A811F872B81288B1C
:101660003C81398B4D814A8B5E815B8B6F816C8BAA
:1016700078857D8B89858E8B9E890E8D091708F460
:1016800042C01E892E8D121709F092CE3D894D8DD4
:101690004317C8F15D896D8D561709F089CE7C8995
:1016A0008C8D871780F19C890C8D901709F080CE66
:1016B0001B892B8D211738F13B894B8D341709F08D
:1016C00077CE5A896A8D6517F0F07A898A8D7817F6
:1016D00009F06ECE9989098D0917A8F01989298D0D
:1016E000121709F065CE3889488D431760F0588984
:1016F000688D561709F05CCE7F858F89871718F0A3
:1017000057CE82E289838981C75BDF4F0FB6F89499
:10171000DEBF0FBECDBFCF91DF911F910F91089516
:10172000DF93CF93CDB7DEB72A970FB6F894DEBF1D
:101730000FBECDBF6F83788789879A8781E28983BF
:10174000809163008132E9F51A821B821C821D821E
:101750008FE10E94DD0380E20E94DD038AE00E94A7
:10176000A70180E20E94BF028AEF0E946F0480E01E
:101770000E94460418C09E012A5F3F4F80E2B901D3
:101780000E9411038E81813071F480E20E94BF02B9
:101790008A819B81AC81BD810196A11DB11D8A8387
:1017A0009B83AC83BD832A813B814C815D818F818A
:1017B0009885A985BA8582179307A407B507D8F637
:1017C00002C082E2898389812A960FB6F894DEBF2F
:1017D0000FBECDBFCF91DF910895DF93CF9300D09F
:1017E00000D00F92CDB7DEB76A837B838C839D8355
:1017F00081E2898380916300813209F03FC080914A
:1018000062008E31D9F18A819B81AC81BD81880FC4
:10181000991FAA1FBB1F880F991FAA1FBB1F9C01DE
:10182000AD0160E070E080E090E0209376003093BE
:101830007700409378005093790060937A0070931A
:101840007B0080937C0090937D008AEF0E946F0460
:1018500080E00E94460482E28093630080E20E945E
:101860006F0322E53CE080E2B9010E94BC048AE0FB
:101870000E94A7018EE18093620002C082E2898308
:1018800089810F900F900F900F900F90CF91DF9163
:101890000895DF93CF93CDB7DEB780916200CF91EB
:1018A000DF910895DF93CF93CDB7DEB7AB970FB637
:1018B000F894DEBF0FBECDBF80916300823209F085
:1018C00017C12091760030917700409178005091B7
:1018D000790060917A0070917B0080917C009091FA
:1018E0007D00E22FE32BE42BE52BE62BE72BE82B07
:1018F000E92BEE2309F4FCC0809176008983909156
:1019000077009A83809178008B83909179009C83F3
:1019100080917A008D8390917B009E8380917C00E2
:101920008F8390917D0098878FEF89879FEF9A87AB
:101930008FEF8B879FEF9C878FEF8D879FEF9E8721
:101940008FEF8F879FEF988B89819985890F898B7E
:1019500081E0898F99898981981708F0198E9A8179
:101960008A85980F9A8B91E09A8F8A899A81891734
:1019700008F01A8E898D9A89890F8B8F81E08C8F60
:101980009B8D8A89981708F01C8E9A8D8C8D982BC8
:101990009A8F9B8D9A8B8B819B85890F8B8B81E096
:1019A0008D8F9B898B81981708F01D8E9A8D8B895E
:1019B000980F9E8F91E09F8F8E8D9B89891708F0DD
:1019C0001F8E8D8D9F8D892B8D8F8E8D8B8B9C8106
:1019D0008C85980F9C8B91E098A38C899C818917AA
:1019E00008F018A28D8D9C89890F89A381E08AA3B4
:1019F00099A18C89981708F01AA298A18AA1982B0E
:101A000098A399A19C8B8D819D85890F8D8B81E0F9
:101A10008BA39D898D81981708F01BA298A18D89B1
:101A2000980F9CA391E09DA38CA19D89891708F034
:101A30001DA28BA19DA1892B8BA38CA18D8B9E8137
:101A40008E85980F9E8B91E09EA38E899E8189172B
:101A500008F01EA28BA19E89890F8FA381E088A721
:101A60009FA18E89981708F018A69EA188A5982B8B
:101A70009EA39FA19E8B8F819F85890F8F8B81E075
:101A800089A79F898F81981708F019A69EA18F8931
:101A9000980F9AA791E09BA78AA59F89891708F0BC
:101AA0001BA689A59BA5892B89A78AA58F8B9885BD
:101AB0008889980F988F89A5988D890F888F298993
:101AC0003A894B895C896D897E898F89988D2093AD
:101AD00076003093770040937800509379006093BC
:101AE0007A0070937B0080937C0090937D0006C009
:101AF00081E2809363008DE180936200AB960FB624
:101B0000F894DEBF0FBECDBFCF91DF910895DF9374
:101B1000CF9300D000D000D0CDB7DEB78A836B83DF
:101B20004C8382E089838B81883008F0EEC08A8103
:101B3000282F30E03E832D838D819E818930910551
:101B400009F44AC02D813E812A30310534F48D815B
:101B50009E818830910571F0D5C02D813E812A305B
:101B6000310509F46BC08D819E818B30910509F49C
:101B700097C0C8C08C818823A9F4ABE3B0E0EBE345
:101B8000F0E08081482F8B81282F30E081E090E0C9
:101B9000022E02C0880F991F0A94E2F780958423D1
:101BA0008C93B5C08C818130A1F4ABE3B0E0EBE362
:101BB000F0E08081482F8B81282F30E081E090E099
:101BC000022E02C0880F991F0A94E2F7842B8C938F
:101BD0009EC083E089839BC08C818823A9F4A8E3FD
:101BE000B0E0E8E3F0E08081482F8B81282F30E0DF
:101BF00081E090E0022E02C0880F991F0A94E2F75C
:101C0000809584238C9383C08C818130A1F4A8E3D8
:101C1000B0E0E8E3F0E08081482F8B81282F30E0AE
:101C200081E090E0022E02C0880F991F0A94E2F72B
:101C3000842B8C936CC083E0898369C08C8188235A
:101C4000A9F4A5E3B0E0E5E3F0E08081482F8B81C3
:101C5000282F30E081E090E0022E02C0880F991F0B
:101C60000A94E2F7809584238C9351C08C81813053
:101C7000A1F4A5E3B0E0E5E3F0E08081482F8B819B
:101C8000282F30E081E090E0022E02C0880F991FDB
:101C90000A94E2F7842B8C933AC083E0898337C09F
:101CA0008C818823A9F4A2E3B0E0E2E3F0E0808134
:101CB000482F8B81282F30E081E090E0022E02C077
:101CC000880F991F0A94E2F7809584238C931FC094
:101CD0008C818130A1F4A2E3B0E0E2E3F0E0808106
:101CE000482F8B81282F30E081E090E0022E02C047
:101CF000880F991F0A94E2F7842B8C9308C083E025
:101D0000898305C083E0898302C083E08983898158
:101D100026960FB6F894DEBF0FBECDBFCF91DF91F0
:101D20000895DF93CF9300D000D000D0CDB7DEB7B9
:101D30008A836B834C8382E089838B81883008F0AF
:101D4000EEC08A81282F30E03E832D838D819E81D5
:101D50008930910509F44AC02D813E812A30310530
:101D600034F48D819E818830910571F0D5C02D812C
:101D70003E812A30310509F46BC08D819E818B3004
:101D8000910509F497C0C8C08C818130A1F4AAE301
:101D9000B0E0EAE3F0E08081482F8B81282F30E02B
:101DA00081E090E0022E02C0880F991F0A94E2F7AA
:101DB000842B8C93B6C08C818823A9F4AAE3B0E06D
:101DC000EAE3F0E08081482F8B81282F30E081E02A
:101DD00090E0022E02C0880F991F0A94E2F78095C6
:101DE00084238C939EC083E089839BC08C81813047
:101DF000A1F4A7E3B0E0E7E3F0E08081482F8B8116
:101E0000282F30E081E090E0022E02C0880F991F59
:101E10000A94E2F7842B8C9384C08C818823A9F4E4
:101E2000A7E3B0E0E7E3F0E08081482F8B81282F23
:101E300030E081E090E0022E02C0880F991F0A94E2
:101E4000E2F7809584238C936CC083E0898369C01A
:101E50008C818130A1F4A4E3B0E0E4E3F0E0808180
:101E6000482F8B81282F30E081E090E0022E02C0C5
:101E7000880F991F0A94E2F7842B8C9352C08C81AF
:101E80008823A9F4A4E3B0E0E4E3F0E08081482FE4
:101E90008B81282F30E081E090E0022E02C0880F75
:101EA000991F0A94E2F7809584238C933AC083E0CB
:101EB000898337C08C818130A1F4A1E3B0E0E1E3F4
:101EC000F0E08081482F8B81282F30E081E090E086
:101ED000022E02C0880F991F0A94E2F7842B8C937C
:101EE00020C08C818823A9F4A1E3B0E0E1E3F0E015
:101EF0008081482F8B81282F30E081E090E0022EF6
:101F000002C0880F991F0A94E2F7809584238C936E
:101F100008C083E0898305C083E0898302C083E031
:101F20008983898126960FB6F894DEBF0FBECDBF98
:101F3000CF91DF910895DF93CF9300D000D00F921F
:101F4000CDB7DEB78A836B8382E089838A81282FAD
:101F500030E03D832C838C819D8189309105D9F0BF
:101F60002C813D812A30310534F48C819D8188306B
:101F7000910561F01FC02C813D812A30310581F02F
:101F80008C819D818B30910581F014C0EBE3F0E0F2
:101F90008B81808311C0E8E3F0E08B8180830CC0EB
:101FA000E5E3F0E08B81808307C0E2E3F0E08B8122
:101FB000808302C083E0898389810F900F900F9006
:101FC0000F900F90CF91DF910895DF93CF9300D0C2
:101FD00000D00F92CDB7DEB78A836B8382E089830E
:101FE0008A81282F30E03D832C838C819D8189302C
:101FF0009105D9F02C813D812A30310534F48C8152
:102000009D818830910561F01FC02C813D812A306F
:10201000310581F08C819D818B30910581F014C058
:10202000EAE3F0E08B81808311C0E7E3F0E08B818D
:1020300080830CC0E4E3F0E08B81808307C0E1E3A0
:10204000F0E08B81808302C083E0898389810F90D7
:102050000F900F900F900F90CF91DF910895DF9325
:10206000CF93CDB7DEB727970FB6F894DEBF0FBE7C
:10207000CDBF8A836B835D834C8382E089838B81B0
:10208000883008F074C08A81282F30E03F832E8387
:102090004E815F814930510559F18E819F818A308F
:1020A000910534F42E813F812830310569F05CC000
:1020B0004E815F814A30510579F18E819F818B304D
:1020C000910509F43DC050C0E9E3F0E08081282F7C
:1020D00030E08B81882F90E0A90102C0559547958B
:1020E0008A95E2F7CA018170EC81FD81808341C04D
:1020F000E6E3F0E08081282F30E08B81882F90E0AC
:10210000A90102C0559547958A95E2F7CA018170E9
:10211000EC81FD8180832DC0E3E3F0E08081282FF6
:1021200030E08B81882F90E0A90102C0559547953A
:102130008A95E2F7CA018170EC81FD81808319C024
:10214000E0E3F0E08081282F30E08B81882F90E061
:10215000A90102C0559547958A95E2F7CA01817099
:10216000EC81FD81808305C083E0898302C083E028
:102170008983898127960FB6F894DEBF0FBECDBF45
:10218000CF91DF910895DF93CF9300D000D000D09E
:10219000CDB7DEB78A837C836B8382E089838A81B3
:1021A000282F30E03E832D838D819E8189309105DB
:1021B000E9F02D813E812A30310534F48D819E81F4
:1021C0008830910561F027C02D813E812A3031058C
:1021D000A1F08D819E818B309105B1F01CC0E9E3A7
:1021E000F0E08081EB81FC81808317C0E6E3F0E0C2
:1021F0008081EB81FC81808310C0E3E3F0E080818B
:10220000EB81FC81808309C0E0E3F0E08081EB8119
:10221000FC81808302C083E08983898126960FB682
:10222000F894DEBF0FBECDBFCF91DF910895DF934D
:10223000CF9300D000D00F92CDB7DEB78A836B83E7
:1022400082E089838B81883008F073C08A81282FCF
:1022500030E03D832C838C819D818930910551F143
:102260002C813D812A30310534F48C819D81883068
:10227000910561F05BC02C813D812A30310571F1FF
:102280008C819D818B309105E9F150C0ABE3B0E0CA
:10229000EBE3F0E08081482F8B81282F30E081E054
:1022A00090E0022E02C0880F991F0A94E2F784275B
:1022B0008C9341C0A8E3B0E0E8E3F0E08081482FD0
:1022C0008B81282F30E081E090E0022E02C0880F41
:1022D000991F0A94E2F784278C932DC0A5E3B0E000
:1022E000E5E3F0E08081482F8B81282F30E081E00A
:1022F00090E0022E02C0880F991F0A94E2F784270B
:102300008C9319C0A2E3B0E0E2E3F0E08081482FB3
:102310008B81282F30E081E090E0022E02C0880FF0
:10232000991F0A94E2F784278C9305C083E0898380
:1023300002C083E0898389810F900F900F900F90E6
:102340000F90CF91DF910895DF93CF93CDB7DEB794
:10235000A0E5B0E0E0E5F0E0808184608C93CF916F
:10236000DF910895DF93CF93CDB7DEB7A0E5B0E05E
:10237000E0E5F0E080818B7F8C93CF91DF91089531
:10238000DF93CF93CDB7DEB789E064E041E00E94F0
:10239000910E89E065E041E00E94910E89E066E0DF
:1023A00041E00E94910E89E067E041E00E94910EB9
:1023B00089E064E040E00E94870D89E065E040E04C
:1023C0000E94870D89E066E040E00E94870D89E069
:1023D00067E040E00E94870DCF91DF910895DF9381
:1023E000CF9300D0CDB7DEB78A8384E089838A811A
:1023F000883048F48A81843030F089E06A8141E095
:102400000E94870D02C085E0898389810F900F901B
:10241000CF91DF910895DF93CF9300D0CDB7DEB792
:102420008A8384E089838A81883048F48A81843071
:1024300030F089E06A8140E00E94870D02C085E0AB
:10244000898389810F900F90CF91DF910895DF9359
:10245000CF9300D0CDB7DEB78A8384E089838A81A9
:10246000883040F48A81843028F089E06A810E94B3
:10247000171102C085E0898389810F900F90CF9159
:10248000DF910895DF93CF9300D000D00F92CDB7A6
:10249000DEB785E18A8380917E008B3009F4D5C157
:1024A00084E18A8380917E00282F30E03D832C8355
:1024B0008C819D818530910509F40CC12C813D8171
:1024C000263031051CF58C819D818230910509F4FF
:1024D00095C02C813D81233031055CF48C819D8138
:1024E0000097C9F12C813D812130310509F462C08A
:1024F000ACC18C819D818330910509F4A3C02C81EE
:102500003D812430310509F4C1C09FC18C819D817A
:102510008830910509F44AC12C813D81293031056B
:102520006CF48C819D818630910509F4F7C02C8173
:102530003D812730310509F415C187C18C819D810A
:102540008930910509F455C12C813D812A3031052E
:1025500009F472C17AC10E94490088E061E041E05B
:102560000E94910E88E062E041E00E94910E88E0B6
:1025700063E041E00E94910E88E064E041E00E9447
:10258000910E88E065E041E00E94910E88E066E0EF
:1025900041E00E94910E88E067E041E00E94910EC8
:1025A00062E370E080E090E00E940B0881E080939D
:1025B0007E004BC10E9467088B838B818D3169F44B
:1025C00083E00E942E1489838981843119F410924A
:1025D000800003C081E08093800080918000813082
:1025E00009F033C11092800082E080937E006AE09F
:1025F00070E080E090E00E940B0827C10E9467080D
:102600008B838B818D3169F483E00E942E14898342
:102610008981843119F41092800003C081E0809395
:10262000800080918000813009F00FC183E08093A9
:102630007E006AE070E080E090E00E940B0810925B
:10264000800003C10E9467088B838B818D3169F400
:1026500083E00E942E1489838981843119F41092B9
:10266000800003C081E080938000809180008130F1
:1026700009F0EBC084E080937E006AE070E080E0C7
:1026800090E00E940B0810928000DFC00E94670853
:102690008B838B818D3169F482E00E942E148983B3
:1026A0008981843119F41092800003C081E0809305
:1026B000800080918000813009F0C7C085E0809360
:1026C0007E006AE070E080E090E00E940B081092CB
:1026D0008000BBC00E9467088B838B818D3169F4B9
:1026E00080E20E942E1489838981843119F410922A
:1026F000800003C081E08093800080918000813061
:1027000009F0A3C086E080937E006AE070E080E07C
:1027100090E00E940B081092800097C00E9467080A
:102720008B838B818D3169F488E00E942E1489831C
:102730008981843119F41092800003C081E0809374
:10274000800080918000813009F07FC087E0809315
:102750007E006AE070E080E090E00E940B0810923A
:10276000800073C00E9467088B838B818D3169F470
:1027700081E00E942E1489838981843119F410929A
:10278000800003C081E080938000809180008130D0
:1027900009F05BC088E080937E006AE070E080E032
:1027A00090E00E940B08109280004FC00E946708C2
:1027B0008B838B818D3169F486E00E942E1489838E
:1027C0008981843119F41092800003C081E08093E4
:1027D0008000809180008130C1F589E080937E0087
:1027E0006AE070E080E090E00E940B0810928000A8
:1027F0002CC00E9467088B838B818D3169F48CE03B
:102800000E942E1489838981843119F410928000EA
:1028100003C081E080938000809180008130A9F422
:102820008AE080937E006AE070E080E090E00E94A1
:102830000B081092800009C00E9467088B838B816F
:102840008D3119F48BE080937E008A810F900F9078
:102850000F900F900F90CF91DF910895DF93CF935A
:1028600000D000D00F92CDB7DEB78B8384E18A838E
:1028700080916400853009F0EBC080917F00853045
:1028800011F410927F0080917F00282F30E03D836B
:102890002C838C819D818230910509F47DC02C812F
:1028A0003D812330310554F48C819D81009799F04E
:1028B0002C813D812130310571F1CAC08C819D810F
:1028C0008330910509F4A4C02C813D812430310569
:1028D00009F4B3C0BDC00E946708898389818D3126
:1028E00009F0B6C088E063E041E00E94870D88E00F
:1028F00061E040E00E94870D88E062E040E00E94D5
:10290000870D6AE070E080E090E00E940B0881E0B3
:1029100080937F009DC00E946708898389818D31E3
:1029200009F096C08B81982F991F9927991F88E0ED
:1029300067E0492F0E94870D8B8182958695869549
:102940008370982F917088E066E0492F0E94870D70
:102950008B81829586958770982F917088E065E0CD
:10296000492F0E94870D8B8182958F70982F9170CF
:1029700088E064E0492F0E94870D88E063E040E032
:102980000E94870D6AE070E080E090E00E940B08F2
:1029900082E080937F005CC00E9467088983898100
:1029A0008D3109F055C088E063E041E00E94870D59
:1029B0008B81869586958695982F917088E067E043
:1029C000492F0E94870D8B8186958695982F91704F
:1029D00088E066E0492F0E94870D8B818695982FAD
:1029E000917088E065E0492F0E94870D8B81982FB8
:1029F000917088E064E0492F0E94870D6AE070E0E2
:102A000080E090E00E940B0883E080937F0020C06C
:102A10000E946708898389818D31D1F488E063E061
:102A200040E00E94870D6AE070E080E090E00E9444
:102A30000B0884E080937F000BC00E9467088983A5
:102A400089818D3129F485E080937F0085E18A8337
:102A50008A810F900F900F900F900F90CF91DF9180
:102A60000895DF93CF9300D000D00F92CDB7DEB79B
:102A70008B831A8280917F00853009F0F0C08091AD
:102A80007E008B3009F0EBC080916400853011F43A
:102A90001092640080916400282F30E03D832C83E5
:102AA0008C819D818230910509F47DC02C813D810E
:102AB0002330310554F48C819D81009799F02C814D
:102AC0003D812130310571F1CAC08C819D818330F7
:102AD000910509F4A4C02C813D812430310509F40D
:102AE000B3C0BDC00E946708898389818D3109F018
:102AF000B6C088E063E041E00E94870D88E061E0B5
:102B000041E00E94870D88E062E040E00E94870D6E
:102B10006AE070E080E090E00E940B0881E0809322
:102B200064009DC00E946708898389818D3109F006
:102B300096C08B81982F991F9927991F88E067E08D
:102B4000492F0E94870D8B8182958695869583708B
:102B5000982F917088E066E0492F0E94870D8B8145
:102B6000829586958770982F917088E065E0492F4F
:102B70000E94870D8B8182958F70982F917088E0CD
:102B800064E0492F0E94870D88E063E040E00E94E6
:102B9000870D6AE070E080E090E00E940B0882E020
:102BA000809364005CC00E946708898389818D31AD
:102BB00009F055C088E063E041E00E94870D8B81F9
:102BC000869586958695982F917088E067E0492FC5
:102BD0000E94870D8B8186958695982F917088E04D
:102BE00066E0492F0E94870D8B818695982F917002
:102BF00088E065E0492F0E94870D8B81982F9170A6
:102C000088E064E0492F0E94870D6AE070E080E070
:102C100090E00E940B0883E08093640020C00E9433
:102C20006708898389818D31D1F488E063E040E0D1
:102C30000E94870D6AE070E080E090E00E940B083F
:102C400084E0809364000BC00E94670889838981B7
:102C50008D3129F485E08093640085E18A838A813F
:102C60000F900F900F900F900F90CF91DF910895DC
:102C7000DF93CF93CDB7DEB70E9488008AE062E091
:102C800041E00E94910E8AE063E041E00E94910ED3
:102C90008AE064E041E00E94910E8AE065E040E055
:102CA0000E94910E8AE066E040E00E94910E8AE068
:102CB00067E040E00E94910E0E94B2118AE062E05B
:102CC00041E00E94870D8AE063E041E00E94870DA9
:102CD0008AE064E041E00E94870D8AE065E041E01F
:102CE0000E94870D8AE066E041E00E94870D8AE03D
:102CF00067E041E00E94870D81E08093810085E1DB
:102D00008093830086E18093840010928200CF91AB
:102D1000DF910895DF93CF93CDB7DEB727970FB636
:102D2000F894DEBF0FBECDBF9D838C8383E38A837F
:102D300081E08B838C819D81009709F460C0809134
:102D40008100282F30E03F832E838E819F81813048
:102D5000910591F12E813F8122303105A1F18E81C3
:102D60009F81009709F04DC0909183008AE0692F00
:102D700040E00E94870D909184009E012D5F3F4F9F
:102D80008AE0692FA9010E942F10909183008AE0A8
:102D9000692F41E00E94870D8B81882391F182E0A9
:102DA0008093810081E08093820064E170E080E0A4
:102DB00090E00E94ED0B25C08C819D810E940B1735
:102DC00082E38A831EC00E94490C898389818D31E8
:102DD000C1F480918200823029F410928100109217
:102DE000820009C080918200813029F481E08093C3
:102DF00081001092820080E20E94DD0302C083E322
:102E00008A838A8127960FB6F894DEBF0FBECDBFA6
:102E1000CF91DF910895DF93CF9300D000D000D001
:102E2000CDB7DEB79E838D8385E08B8382E08A8376
:102E3000198281E08C83ED81FE8184E1808385E1CC
:102E40008093830086E18093840082E08A8344C07B
:102E50008AE06A8140E00E94870D85E08B832DC067
:102E600089818F5F89839E012C5F3F4F8AE06B8150
:102E7000A9010E942F108C818823E1F48AE06A81E5
:102E800041E00E94870DED81FE818981808382E08F
:102E90008093820082E0809381008A818093830006
:102EA0008B818093840064E170E080E090E00E9478
:102EB000ED0B06C08B818F5F8B838B81883080F216
:102EC00080918100823061F08AE06A8141E00E9455
:102ED000870D8A818F5F8A838A81853008F4B8CF15
:102EE00026960FB6F894DEBF0FBECDBFCF91DF910F
:102EF0000895DF93CF9300D000D000D0CDB7DEB7D8
:102F000084E18E8384E18D8383E38C8384E18B83EE
:102F10001A8283E389830E943816AFE5B0E0EFE5BB
:102F2000F0E0808180688C930E9442128B838B81B9
:102F3000843121F40E9442128B83F9CFCE01069690
:102F40000E948A168C838C81823341F48E81843175
:102F500029F08E81805D8A8382E38983898182332F
:102F600031F78A810E9431158D838D818531F9F683
:0A2F700083E38983DCCFF894FFCFE0
:062F7A001C1A1C210500D9
:00000001FF
